:100000000C942A000C9447000C9447000C94470071
:100010000C9447000C9447000C9447000C94470044
:100020000C9447000C9437120C9447000C948712E0
:100030000C9447000C9447000C9447000C94470024
:100040000C9447000C9447000C9447000C94470014
:100050000C94470011241FBECFE5D8E0DEBFCDBF12
:1000600011E0A0E6B0E0E8E2FCE202C005900D92EB
:10007000AA36B107D9F711E0AAE6B1E001C01D9296
:10008000AA39B107E1F70E94CD140C9412160C9412
:100090000000EF92FF920F931F937B018C0120E0F1
:1000A00030E040E05FE40E94F50388238CF0C80153
:1000B000B70120E030E040E05FE40E94C1010E940F
:1000C000B3049B01AC01205030404040504806C072
:1000D000C801B7010E94B3049B01AC01B901CA0178
:1000E0001F910F91FF90EF900895A0E0B0E0EBE733
:1000F000F0E00C94DB15DC012B01FA019C919230AD
:1001000008F439C1EB018881823008F433C194309E
:1001100069F4843009F02FC111969C91119789815F
:10012000981709F428C1A0E6B0E025C1843009F48D
:1001300021C18230A9F4923009F01DC19A01AD01AC
:1001400088E0EA010990AE01E90109929E0181501F
:10015000C1F7E201898111969C918923818308C1AD
:10016000923009F407C112962D903C901397EB0141
:100170008A819B811496AD90BD90CD90DC901797AD
:10018000EC80FD800E811F819101281B390BB90184
:1001900037FF04C066277727621B730B6032710537
:1001A0000CF061C0121613066CF537014801062EDB
:1001B00004C096948794779467940A94D2F721E0C8
:1001C00030E040E050E004C0220F331F441F551FB1
:1001D0006A95D2F721503040404050402E213F21B7
:1001E00040235123211531054105510521F021E01E
:1001F00030E040E050E079018A01E628F72808293C
:1002000019293CC0232BD1F1260E371E350146019A
:10021000062E04C096948794779467940A94D2F734
:1002200021E030E040E050E004C0220F331F441FC3
:10023000551F6A95D2F721503040404050402A2146
:100240003B214C215D21211531054105510521F04E
:1002500021E030E040E050E059016A01A628B728CB
:10026000C828D9280BC0821593052CF01C01AA249C
:10027000BB24650103C0EE24FF24870111969C91E5
:10028000D20111968C91981709F445C0992339F041
:10029000A80197012A193B094C095D0906C0A6016E
:1002A00095012E193F09400B510B57FD08C01182D3
:1002B0003382228224833583468357831DC081E0A5
:1002C00081833382228288279927DC01821B930B4A
:1002D000A40BB50B84839583A683B7830DC0220F2F
:1002E000331F441F551F24833583468357838281E0
:1002F000938101979383828324813581468157813D
:10030000DA01C9010197A109B1098F5F9F4FAF4F72
:10031000BF4328F30BC0918333822282EA0CFB1C7B
:100320000C1D1D1DE482F5820683178383E0808304
:10033000248135814681578157FF1AC0C901AA27F8
:1003400097FDA095BA2F81709070A070B0705695EF
:10035000479537952795822B932BA42BB52B848318
:100360009583A683B7838281938101969383828349
:10037000DF0101C0D201CD01CDB7DEB7E2E10C94BF
:10038000F715A0E2B0E0E7ECF1E00C94E715698323
:100390007A838B839C832D833E834F835887E9E048
:1003A000EE2EF12CEC0EFD1ECE010196B7010E943F
:1003B000A4068E010F5E1F4FCE010596B8010E9464
:1003C000A4068A8991E089278A8BC701B801AE010A
:1003D000475E5F4F0E9475000E94CF05A096E6E041
:1003E0000C940316A0E2B0E0E8EFF1E00C94E715FE
:1003F00069837A838B839C832D833E834F835887C5
:10040000F9E0EF2EF12CEC0EFD1ECE010196B701A6
:100410000E94A4068E010F5E1F4FCE010596B80103
:100420000E94A406C701B801AE01475E5F4F0E945B
:1004300075000E94CF05A096E6E00C940316A0E29A
:10044000B0E0E5E2F2E00C94DB1569837A838B83FC
:100450009C832D833E834F835887CE010196BE0136
:10046000675F7F4F0E94A406CE010596BE016F5EB6
:100470007F4F0E94A4069985923088F08989823046
:10048000C8F0943019F4823051F404C0843029F457
:10049000923081F480E690E0C6C0923049F420E0CA
:1004A0009A858A89981321E02A87CE010996BBC0D4
:1004B000823049F420E09A858A89981321E02A8BBA
:1004C000CE014196B0C02D843E844F8458886D88FB
:1004D0007E888F88988CEE24FF248701AA24BB2471
:1004E000650140E050E060E070E0E0E0F0E0C10174
:1004F00081709070892BE9F0E60CF71C081D191D1E
:100500009A01AB012A0D3B1D4C1D5D1D80E090E062
:10051000A0E0B0E0E614F7040805190520F481E036
:1005200090E0A0E0B0E0BA01A901480F591F6A1F8E
:100530007B1FAA0CBB1CCC1CDD1C97FE08C081E0F5
:1005400090E0A0E0B0E0A82AB92ACA2ADB2A3196B6
:10055000E032F10549F0660C771C881C991C569412
:10056000479437942794C3CFFA85EA892B893C892D
:100570008B859C85280F391F2E5F3F4F17C0CA01FE
:1005800081709070892B61F016950795F794E79428
:1005900080E090E0A0E0B0E8E82AF92A0A2B1B2BC3
:1005A00076956795579547952F5F3F4F77FDE7CF36
:1005B0000CC0440F551F661F771F17FD4160EE0CDE
:1005C000FF1C001F111F21503040403090E05907A0
:1005D00090E0690790E4790760F32B8F3C8FDB0193
:1005E000CA018F779070A070B07080349105A1051A
:1005F000B10561F447FD0AC0E114F10401051105DC
:1006000029F0405C5F4F6F4F7F4F40781A8EFE1786
:1006100011F081E08A8F4D8F5E8F6F8F78A383E01A
:10062000898FCE0149960E94CF05A096E2E10C94F5
:10063000F715A8E1B0E0EFE1F3E00C94E31569836E
:100640007A838B839C832D833E834F835887B9E0C5
:10065000EB2EF12CEC0EFD1ECE010196B7010E948F
:10066000A4068E010F5E1F4FCE010596B8010E94B1
:10067000A4062985223008F47EC03989323010F46E
:10068000B8017CC08A859A8989278A87243011F02D
:10069000223031F4231709F06EC060E670E06EC0BE
:1006A000343039F41D861E861F86188A1C861B86E8
:1006B00004C0323021F484E08987B7015FC02B8504
:1006C0003C858B899C89281B390B3C872B87ED84C3
:1006D000FE840F851889AD88BE88CF88D88CEA142F
:1006E000FB040C051D0540F4EE0CFF1C001F111F40
:1006F000215030403C872B8720E030E040E050E044
:1007000080E090E0A0E0B0E460E070E0EA14FB0478
:100710000C051D0540F0282B392B4A2B5B2BEA18C2
:10072000FB080C091D09B695A79597958795EE0CC2
:10073000FF1C001F111F6F5F7F4F6F31710531F775
:10074000DA01C9018F779070A070B0708034910584
:10075000A105B10561F427FD0AC0E114F10401050A
:10076000110529F0205C3F4F4F4F5F4F20782D87B8
:100770003E874F87588BBE01675F7F4FCB010E943A
:10078000CF056896EAE00C94FF15A8E1B0E0EBEC29
:10079000F3E00C94E71569837A838B839C832D8324
:1007A0003E834F83588789E0E82EF12CEC0EFD1E26
:1007B000CE010196B7010E94A4068E010F5E1F4F65
:1007C000CE010596B8010E94A4068985823040F0CA
:1007D0008989823028F0C701B8010E941C0701C036
:1007E0008FEF6896E6E00C940316A8E1B0E0EBEF1B
:1007F000F3E00C94E71569837A838B839C832D83C4
:100800003E834F83588789E0E82EF12CEC0EFD1EC5
:10081000CE010196B7010E94A4068E010F5E1F4F04
:10082000CE010596B8010E94A4068985823040F069
:100830008989823028F0C701B8010E941C0701C0D5
:100840008FEF6896E6E00C940316A8E1B0E0EBE2C7
:10085000F4E00C94E71569837A838B839C832D8362
:100860003E834F83588789E0E82EF12CEC0EFD1E65
:10087000CE010196B7010E94A4068E010F5E1F4FA4
:10088000CE010596B8010E94A4068985823040F009
:100890008989823028F0C701B8010E941C0701C075
:1008A00081E06896E6E00C940316A8E0B0E0EBE582
:1008B000F4E00C94E4159B01AC0183E08983DA0138
:1008C000C9018827B7FD83959927AA27BB27B82E8A
:1008D000211531054105510519F482E089833AC09B
:1008E0008823A9F0203080E0380780E0480780E8BE
:1008F000580729F460E070E080E09FEC30C0EE24FF
:10090000FF248701E21AF30A040B150B02C07901D8
:100910008A018EE1C82ED12CDC82CB82ED82FE8250
:100920000F831887C801B7010E9480050197181628
:10093000190684F4082E04C0EE0CFF1C001F111FC2
:100940000A94D2F7ED82FE820F831887C81AD90A5B
:10095000DC82CB82BA82CE0101960E94CF05289616
:10096000E9E00C940016ACE0B0E0E9EBF4E00C94A4
:10097000EB1569837A838B839C83CE010196BE013C
:100980006B5F7F4F0E94A4068D81823061F18230BF
:1009900050F1843021F48E81882351F12EC02F81B3
:1009A000388537FD20C06E812F3131051CF066235C
:1009B000F9F023C08EE190E0821B930B29853A85E4
:1009C0004B855C8504C056954795379527958A9544
:1009D000D2F76623B1F050954095309521953F4F61
:1009E0004F4F5F4F0EC020E030E040E050E009C0C4
:1009F0002FEF3FEF4FEF5FE704C020E030E040E033
:100A000050E8B901CA012C96E2E00C940716A8E060
:100A1000B0E0EDE0F5E00C94E3157B018C0161158D
:100A200071058105910519F482E0898360C083E036
:100A300089838EE1C82ED12CDC82CB82ED82FE82AE
:100A40000F831887C801B7010E948005FC01319708
:100A5000F7FF3BC0222733272E1B3F0B57016801AE
:100A6000022E04C0D694C794B794A7940A94D2F7E0
:100A700040E050E060E070E081E090E0A0E0B0E0B5
:100A800004C0880F991FAA1FBB1F2A95D2F7019790
:100A9000A109B1098E219F21A023B1230097A105AF
:100AA000B10521F041E050E060E070E04A295B29A7
:100AB0006C297D294D835E836F8378878EE190E07A
:100AC0008E1B9F0B9C838B8312C0309781F00E2E60
:100AD00004C0EE0CFF1C001F111F0A94D2F7ED8218
:100AE000FE820F831887CE1ADF0ADC82CB821A823D
:100AF000CE0101960E94CF052896EAE00C94FF15DE
:100B0000EF92FF920F931F937B018C0180E0E81618
:100B100080E0F80681E0080780E0180788F48FEF8E
:100B2000E816F1040105110531F028F088E090E0A5
:100B3000A0E0B0E017C080E090E0A0E0B0E012C01C
:100B400080E0E81680E0F80680E0080781E01807FA
:100B500028F088E190E0A0E0B0E004C080E190E0FF
:100B6000A0E0B0E020E230E040E050E0281B390B8C
:100B70004A0B5B0B04C016950795F794E7948A958A
:100B8000D2F7F701E859FF4F8081281B310941094D
:100B90005109C9011F910F91FF90EF900895DF92C5
:100BA000EF92FF920F931F93FC01E480F580068182
:100BB0001781D1808081823048F480E090E0A0E10C
:100BC000B0E0E82AF92A0A2B1B2BA5C0843009F4CF
:100BD0009FC0823021F4EE24FF24870105C0E11478
:100BE000F1040105110519F4E0E0F0E096C062811E
:100BF00073819FEF623879070CF05BC022E83FEF0A
:100C0000261B370B2A3131052CF020E030E040E084
:100C100050E02AC0B801A701022E04C0769567955E
:100C2000579547950A94D2F781E090E0A0E0B0E0B4
:100C300004C0880F991FAA1FBB1F2A95D2F70197DE
:100C4000A109B1098E219F21A023B1230097A105FD
:100C5000B10521F081E090E0A0E0B0E09A01AB01A5
:100C6000282B392B4A2B5B2BDA01C9018F77907027
:100C7000A070B07080349105A105B10539F427FF4B
:100C800009C0205C3F4F4F4F5F4F04C0215C3F4F76
:100C90004F4F5F4FE0E0F0E02030A0E03A07A0E0E7
:100CA0004A07A0E45A0710F0E1E0F0E079018A0178
:100CB00027C06038710564F5FB01E158FF4FD8018A
:100CC000C7018F779070A070B07080349105A10536
:100CD000B10539F4E7FE0DC080E490E0A0E0B0E09B
:100CE00004C08FE390E0A0E0B0E0E80EF91E0A1F18
:100CF0001B1F17FF05C016950795F794E7943196CB
:100D000087E016950795F794E7948A95D1F705C083
:100D1000EE24FF248701EFEFF0E06E2F6795662742
:100D20006795902F9F77D794DD24D7948E2F869543
:100D3000492F462B582F5D29B701CA011F910F91EA
:100D4000FF90EF90DF900895FC01DB01408151811D
:100D50002281622F6F7770E0221F2227221F93814A
:100D6000892F880F822B282F30E0991F9927991FF0
:100D700011969C93119721153105A9F5411551053F
:100D80006105710511F482E037C082E89FEF139688
:100D90009C938E9312979A01AB0167E0220F331F49
:100DA000441F551F6A95D1F783E08C930DC0220F25
:100DB000331F441F551F12968D919C9113970197D5
:100DC00013969C938E931297203080E0380780E032
:100DD000480780E4580758F314962D933D934D939C
:100DE0005C93179708952F3F310579F4411551050C
:100DF0006105710519F484E08C93089564FF03C0C4
:100E000081E08C9312C01C9210C02F573040139673
:100E10003C932E93129783E08C9387E0440F551FE9
:100E2000661F771F8A95D1F7706414964D935D9372
:100E30006D937C93179708951F93DC01FB019C91A0
:100E4000923008F447C08081823008F443C0943067
:100E500051F411961C91843099F58181682F70E0CE
:100E6000611B71093FC0843021F0923031F482302F
:100E7000B9F18181882389F12DC011961C911197B8
:100E80008230F1F081811817D9F412962D913C919E
:100E90001397828193818217930794F0281739075B
:100EA000BCF014968D919D910D90BC91A02D248144
:100EB000358146815781281739074A075B0718F49F
:100EC000112341F00AC082179307A407B50740F425
:100ED000112319F061E070E005C06FEF7FEF02C0F1
:100EE00060E070E0CB011F910895DF93CF93CDB701
:100EF000DEB7A9E5B0E0E9E5F0E0808182608C939F
:100F0000CF91DF910895DF93CF93CDB7DEB7A9E5F9
:100F1000B0E0E9E5F0E080818D7F8C93CF91DF91A7
:100F20000895DF93CF93CDB7DEB7CF91DF910895CA
:100F3000DF93CF930F92CDB7DEB78983A3E5B0E0FF
:100F4000E3E5F0E090818981892B8C930F90CF911C
:100F5000DF910895DF93CF93CDB7DEB7A3E5B0E07F
:100F6000E3E5F0E080818C7F8C93CF91DF91089551
:100F7000DF93CF93CDB7DEB7CF91DF910895DF93A5
:100F8000CF93CDB7DEB7CF91DF910895DF93CF93A5
:100F9000CDB7DEB7E0E2F0E080E28083A1E2B0E02E
:100FA000E1E2F0E080818E7F8C93A1E2B0E0E1E2AB
:100FB000F0E080818D7F8C93A6E5B0E0E6E5F0E07F
:100FC000808184608C93CF91DF910895DF93CF93DC
:100FD000CDB7DEB7E2E2F0E082E08083A6E5B0E0E4
:100FE000E6E5F0E0808180648C93A6E5B0E0E6E57C
:100FF000F0E0808184608C93CF91DF910895DF933E
:10100000CF930F92CDB7DEB71982A6E5B0E0E6E543
:10101000F0E0808180628C93A6E5B0E0E6E5F0E048
:10102000808180688C93E6E5F0E080818823DCF79E
:10103000E1E2F0E08081882F90E0887F9070883036
:10104000910511F481E0898389810F90CF91DF911F
:101050000895DF93CF930F92CDB7DEB71982A6E53F
:10106000B0E0E6E5F0E0808180628C93A6E5B0E038
:10107000E6E5F0E0808180688C93E6E5F0E0808131
:101080008823DCF7E1E2F0E08081882F90E0887F20
:1010900090708031910511F481E0898389810F90EE
:1010A000CF91DF910895DF93CF93CDB7DEB7A6E55B
:1010B000B0E0E6E5F0E0808180618C93A6E5B0E0E9
:1010C000E6E5F0E0808180688C93CF91DF91089510
:1010D000DF93CF9300D0CDB7DEB78A831982E3E2E6
:1010E000F0E08A81880F8083A6E5B0E0E6E5F0E0D5
:1010F00080818F7D8C93A6E5B0E0E6E5F0E080810D
:1011000080688C93E6E5F0E080818823DCF7E1E2FB
:10111000F0E08081882F90E0887F90708831910581
:1011200011F481E0898389810F900F90CF91DF9135
:101130000895DF93CF9300D0CDB7DEB78A831982AD
:10114000E3E2F0E08A81880F8083A3E2B0E0E3E28B
:10115000F0E0808181608C93A6E5B0E0E6E5F0E008
:1011600080818F7D8C93A6E5B0E0E6E5F0E080819C
:1011700080688C93E6E5F0E080818823DCF7E1E28B
:10118000F0E08081882F90E0887F90708034910516
:1011900011F481E0898389810F900F90CF91DF91C5
:1011A0000895DF93CF9300D0CDB7DEB78A8319823D
:1011B000E3E2F0E08A818083A6E5B0E0E6E5F0E0D6
:1011C000808180688C93E6E5F0E080818823DCF7FD
:1011D000E1E2F0E08081882F90E0887F9070883293
:1011E000910511F481E0898389810F900F90CF914F
:1011F000DF910895DF93CF9300D00F92CDB7DEB784
:101200009B838A831982A6E5B0E0E6E5F0E0808161
:1012100080688C93E6E5F0E080818823DCF7E1E2EA
:10122000F0E08081882F90E0887F9070883591056C
:1012300041F481E08983E3E2F0E08081EA81FB818F
:10124000808389810F900F900F90CF91DF91089547
:10125000DF93CF930F92CDB7DEB71982A6E5B0E04A
:10126000E6E5F0E0808180648C93A6E5B0E0E6E5F9
:10127000F0E0808180688C93E6E5F0E0808188234F
:10128000DCF7E1E2F0E08081882F90E0887F9070C9
:101290008036910511F481E0898389810F90CF9187
:1012A000DF910895DF93CF930F92CDB7DEB7198208
:1012B000A6E5B0E0E6E5F0E0808180648C93A6E5E9
:1012C000B0E0E6E5F0E0808180688C93E6E5F0E050
:1012D00080818823DCF7E1E2F0E08081882F90E0D4
:1012E000887F9070883A910511F481E08983898123
:1012F0000F90CF91DF910895DF93CF9300D00F929D
:10130000CDB7DEB79B838A831982A6E5B0E0E6E518
:10131000F0E0808180688C93E6E5F0E080818823AE
:10132000DCF7E1E2F0E08081882F90E0887F907028
:101330008038910541F481E08983E3E2F0E0808127
:10134000EA81FB81808389810F900F900F90CF916C
:10135000DF910895DF93CF9300D0CDB7DEB78A83B6
:101360001982E3E2F0E08A818083A6E5B0E0E6E559
:10137000F0E0808180688C93E6E5F0E0808188234E
:10138000DCF7E1E2F0E08081882F90E0887F9070C8
:10139000803C910511F481E0898389810F900F9041
:1013A000CF91DF910895DF93CF93CDB7DEB7AFE54F
:1013B000B0E0EFE5F0E0808180688C93CF91DF9121
:1013C0000895DF93CF93CDB7DEB7AFE5B0E0EFE59B
:1013D000F0E080818F778C93CF91DF910895DF9338
:1013E000CF9300D00F92CDB7DEB79A8389836B83FA
:1013F000ECE3F0E08081882F90E08270907000979D
:10140000B9F7EEE3F0E089818083EFE3F0E08981D2
:101410009A81892F99278083EDE3F0E08B81808387
:10142000ACE3B0E0ECE3F0E0808184608C93ACE36B
:10143000B0E0ECE3F0E0808182608C930F900F903D
:101440000F90CF91DF910895DF93CF9300D0CDB768
:10145000DEB79A838983ECE3F0E08081882F90E007
:10146000827090700097B9F7EEE3F0E08981808395
:10147000EFE3F0E089819A81892F99278083ACE39B
:10148000B0E0ECE3F0E0808181608C93EDE3F0E08C
:1014900080810F900F90CF91DF910895DF93CF93CC
:1014A00000D000D00F92CDB7DEB789836A834B831B
:1014B0008981282F30E03D832C838C819D81813070
:1014C000910509F443C02C813D81223031052CF473
:1014D0008C819D81009771F0BCC02C813D812230B0
:1014E000310509F45FC08C819D818330910509F439
:1014F00085C0AFC08B818823A9F4AAE3B0E0EAE3FA
:10150000F0E08081482F8A81282F30E081E090E050
:10151000022E02C0880F991F0A94E2F78095842357
:101520008C9397C0AAE3B0E0EAE3F0E08081482F13
:101530008A81282F30E081E090E0022E02C0880FDF
:10154000991F0A94E2F7842B8C9383C08B818823A4
:10155000A9F4A7E3B0E0E7E3F0E08081482F8A81B7
:10156000282F30E081E090E0022E02C0880F991F02
:101570000A94E2F7809584238C936BC0A7E3B0E0D4
:10158000E7E3F0E08081482F8A81282F30E081E076
:1015900090E0022E02C0880F991F0A94E2F7842B74
:1015A0008C9357C08B818823A9F4A4E3B0E0E4E3D3
:1015B000F0E08081482F8A81282F30E081E090E0A0
:1015C000022E02C0880F991F0A94E2F780958423A7
:1015D0008C933FC0A4E3B0E0E4E3F0E08081482FC7
:1015E0008A81282F30E081E090E0022E02C0880F2F
:1015F000991F0A94E2F7842B8C932BC08B8188234C
:10160000A9F4A1E3B0E0E1E3F0E08081482F8A8112
:10161000282F30E081E090E0022E02C0880F991F51
:101620000A94E2F7809584238C9313C0A1E3B0E081
:10163000E1E3F0E08081482F8A81282F30E081E0CB
:1016400090E0022E02C0880F991F0A94E2F7842BC3
:101650008C930F900F900F900F900F90CF91DF9180
:101660000895DF93CF9300D000D00F92CDB7DEB7AF
:1016700089836A834B838981282F30E03D832C83C3
:101680008C819D818130910509F443C02C813D817D
:10169000223031052CF48C819D81009771F0BCC003
:1016A0002C813D812230310509F45FC08C819D8100
:1016B0008330910509F485C0AFC08B818823A9F4DC
:1016C000ABE3B0E0EBE3F0E08081482F8A81282F84
:1016D00030E081E090E0022E02C0880F991F0A944A
:1016E000E2F7809584238C9397C0ABE3B0E0EBE303
:1016F000F0E08081482F8A81282F30E081E090E05F
:10170000022E02C0880F991F0A94E2F7842B8C9353
:1017100083C08B818823A9F4A8E3B0E0E8E3F0E07C
:101720008081482F8A81282F30E081E090E0022ECE
:1017300002C0880F991F0A94E2F7809584238C9346
:101740006BC0A8E3B0E0E8E3F0E08081482F8A8135
:10175000282F30E081E090E0022E02C0880F991F10
:101760000A94E2F7842B8C9357C08B818823A9F4C9
:10177000A5E3B0E0E5E3F0E08081482F8A81282FDF
:1017800030E081E090E0022E02C0880F991F0A9499
:10179000E2F7809584238C933FC0A5E3B0E0E5E3B6
:1017A000F0E08081482F8A81282F30E081E090E0AE
:1017B000022E02C0880F991F0A94E2F7842B8C93A3
:1017C0002BC08B818823A9F4A2E3B0E0E2E3F0E030
:1017D0008081482F8A81282F30E081E090E0022E1E
:1017E00002C0880F991F0A94E2F7809584238C9396
:1017F00013C0A2E3B0E0E2E3F0E08081482F8A81E9
:10180000282F30E081E090E0022E02C0880F991F5F
:101810000A94E2F7842B8C930F900F900F900F9007
:101820000F90CF91DF910895DF93CF9300D000D038
:10183000CDB7DEB789836A838981282F30E03C8366
:101840002B838B819C818130910549F12B813C81D7
:10185000223031052CF48B819C81009761F05AC0B5
:101860002B813C812230310571F18B819C81833049
:101870009105E9F14FC0ABE3B0E0EBE3F0E080812C
:10188000482F8A81282F30E081E090E0022E02C0AC
:10189000880F991F0A94E2F784278C933BC0A8E332
:1018A000B0E0E8E3F0E08081482F8A81282F30E023
:1018B00081E090E0022E02C0880F991F0A94E2F79F
:1018C00084278C9327C0A5E3B0E0E5E3F0E08081B6
:1018D000482F8A81282F30E081E090E0022E02C05C
:1018E000880F991F0A94E2F784278C9313C0A2E310
:1018F000B0E0E2E3F0E08081482F8A81282F30E0D9
:1019000081E090E0022E02C0880F991F0A94E2F74E
:1019100084278C930F900F900F900F90CF91DF91B1
:101920000895DF93CF9300D000D00F92CDB7DEB7EC
:101930008A836B838A81282F30E03D832C834C81FE
:101940005D814130510541F18C819D81823091054D
:1019500034F42C813D812115310561F052C04C8158
:101960005D814230510551F18C819D81833091051B
:10197000B9F147C0E9E3F0E08081282F30E08B81A6
:10198000882F90E0A90102C0559547958A95E2F706
:10199000CA018170898335C0E6E3F0E08081282F99
:1019A00030E08B81882F90E0A90102C055954795C2
:1019B0008A95E2F7CA018170898323C0E3E3F0E0EE
:1019C0008081282F30E08B81882F90E0A90102C010
:1019D000559547958A95E2F7CA018170898311C0B0
:1019E000E0E3F0E08081282F30E08B81882F90E0C9
:1019F000A90102C0559547958A95E2F7CA01817001
:101A0000898389810F900F900F900F900F90CF9145
:101A1000DF910895DF93CF9300D000D00F92CDB720
:101A2000DEB789836A834B838981282F30E03D8329
:101A30002C838C819D818130910529F12C813D8100
:101A4000223031052CF48C819D81009761F04AC0D1
:101A50002C813D812230310531F18C819D81833093
:101A6000910589F13FC0ABE3B0E0EBE3F0E08081AA
:101A7000982F8B818095292F28239A818B81892308
:101A8000822B8C932FC0A8E3B0E0E8E3F0E08081E4
:101A9000982F8B818095292F28239A818B818923E8
:101AA000822B8C931FC0A5E3B0E0E5E3F0E08081DA
:101AB000982F8B818095292F28239A818B818923C8
:101AC000822B8C930FC0A2E3B0E0E2E3F0E08081D0
:101AD000982F8B818095292F28239A818B818923A8
:101AE000822B8C930F900F900F900F900F90CF91AF
:101AF000DF910895DF93CF9300D000D00F92CDB740
:101B0000DEB789836A834B838981282F30E03D8348
:101B10002C838C819D818130910569F12C813D81DF
:101B2000223031052CF48C819D81009769F067C0CB
:101B30002C813D8122303105A9F18C819D8183303A
:101B4000910509F446C05BC08B81882359F4AAE350
:101B5000B0E0EAE3F0E08081982F8A8180958923C4
:101B60008C934DC0AAE3B0E0EAE3F0E090818A8173
:101B7000892B8C9344C08B81882359F4A7E3B0E070
:101B8000E7E3F0E08081982F8A81809589238C9308
:101B900036C0A7E3B0E0E7E3F0E090818A81892BCB
:101BA0008C932DC08B81882359F4A4E3B0E0E4E347
:101BB000F0E08081982F8A81809589238C931FC0C3
:101BC000A4E3B0E0E4E3F0E090818A81892B8C9378
:101BD00016C08B81882359F4A1E3B0E0E1E3F0E083
:101BE0008081982F8A81809589238C9308C0A1E3F6
:101BF000B0E0E1E3F0E090818A81892B8C930F9033
:101C00000F900F900F900F90CF91DF910895DF9379
:101C1000CF93CDB7DEB7A7E2B0E0E7E2F0E0808196
:101C200080648C93E6E2F0E087E88083CF91DF91D7
:101C30000895DF93CF9300D00F92CDB7DEB78B839B
:101C4000A7E2B0E0E7E2F0E08081982F987F8B81F7
:101C5000892B8C93A6E2B0E0E6E2F0E0808180641C
:101C60008C93E6E2F0E0808182958F70882F90E07F
:101C7000817090700097A9F3A6E2B0E0E6E2F0E090
:101C8000808180618C93E4E2F0E08081282F30E055
:101C9000E5E2F0E08081882F90E0982F8827822B62
:101CA000932B9A83898389819A810F900F900F904B
:101CB000CF91DF910895DF93CF93CDB7DEB781E069
:101CC00061E041E00E944E0A81E062E041E00E9452
:101CD0004E0A80E060EF41E00E947A0DCF91DF91E3
:101CE0000895DF93CF93CDB7DEB76F970FB6F89413
:101CF000DEBF0FBECDBF8F8F8F8D9AE0692F0E9400
:101D0000CF15892F8295807F8E8F8F8D9AE0692FD6
:101D10000E94CF158295807F8D8F81E061E041E048
:101D20000E94310B81E062E040E00E94310B80E0D4
:101D30006E8D40EF0E940A0D80E090E0A0E8BFE3C6
:101D4000898F9A8FAB8FBC8F698D7A8D8B8D9C8D8F
:101D500020E030E04AE755E40E941F02DC01CB019D
:101D60008D8B9E8BAF8BB88F6D897E898F89988D77
:101D700020E030E040E85FE30E94250488232CF453
:101D800081E090E09C8B8B8B3FC06D897E898F8931
:101D9000988D20E03FEF4FE757E40E94C5031816E7
:101DA0004CF5698D7A8D8B8D9C8D20E030E040E282
:101DB00051E40E941F02DC01CB01BC01CD010E9455
:101DC0004900DC01CB019C8B8B8B0FC080E991E03B
:101DD0009A8B898B89899A890197F1F79A8B898BDC
:101DE0008B899C8901979C8B8B8B8B899C89009715
:101DF00069F714C06D897E898F89988D0E9449008A
:101E0000DC01CB019C8B8B8B8B899C89988B8F877A
:101E10008F8598890197F1F7988B8F8781E061E032
:101E200040E00E94310B81E062E041E00E94310B12
:101E300080E06D8D40EF0E940A0D80E090E0A0E808
:101E4000BFE38B879C87AD87BE876B857C858D853F
:101E50009E8520E030E04AE755E40E941F02DC0145
:101E6000CB018F839887A987BA876F817885898509
:101E70009A8520E030E040E85FE30E942504882353
:101E80002CF481E090E09E838D833FC06F81788544
:101E900089859A8520E03FEF4FE757E40E94C5030C
:101EA00018164CF56B857C858D859E8520E030E08D
:101EB00040E251E40E941F02DC01CB01BC01CD01D4
:101EC0000E944900DC01CB019E838D830FC080E915
:101ED00091E09C838B838B819C810197F1F79C839C
:101EE0008B838D819E8101979E838D838D819E81C1
:101EF000009769F714C06F81788589859A850E945B
:101F00004900DC01CB019E838D838D819E819A8364
:101F1000898389819A810197F1F79A83898381E086
:101F200061E040E00E94310B81E062E040E00E940D
:101F3000310B6F960FB6F894DEBF0FBECDBFCF91B9
:101F4000DF910895DF93CF93CDB7DEB763970FB6D8
:101F5000F894DEBF0FBECDBF898B7B8B6A8B188A4E
:101F60001F86188A1F867AC089890E94710E80E0B8
:101F700090E0A0E8BFE38B879C87AD87BE876B8529
:101F80007C858D859E8520E030E04AE755E40E94FF
:101F90001F02DC01CB018F839887A987BA876F81E5
:101FA000788589859A8520E030E040E85FE30E94EB
:101FB000250488232CF481E090E09E838D833FC02C
:101FC0006F81788589859A8520E03FEF4FE757E458
:101FD0000E94C50318164CF56B857C858D859E8502
:101FE00020E030E040E251E40E941F02DC01CB011E
:101FF000BC01CD010E944900DC01CB019E838D8391
:102000000FC080E991E09C838B838B819C81019739
:10201000F1F79C838B838D819E8101979E838D83B5
:102020008D819E81009769F714C06F8178858985BD
:102030009A850E944900DC01CB019E838D838D81AE
:102040009E819A83898389819A810197F1F79A8386
:1020500089838F8598890396988B8F872F853889F8
:102060008A899B892817390708F47ECF63960FB6B3
:10207000F894DEBF0FBECDBFCF91DF910895DF93FF
:10208000CF93CDB7DEB782E062E041E00E944E0A16
:1020900082E067E041E00E944E0A83E063E041E0B5
:1020A0000E944E0ACF91DF910895DF93CF9300D025
:1020B0000F92CDB7DEB789838981282F30E03B832B
:1020C0002A838A819B818130910579F02A813B8125
:1020D0002230310581F08A819B81009789F482E06A
:1020E00062E041E00E94310B0BC082E067E041E01A
:1020F0000E94310B05C083E063E041E00E94310B98
:102100000F900F900F90CF91DF910895DF93CF93B1
:1021100000D00F92CDB7DEB789838981282F30E0B8
:102120003B832A838A819B818130910579F02A81C2
:102130003B812230310581F08A819B81009789F4AF
:1021400082E062E040E00E94310B0BC082E067E079
:1021500040E00E94310B05C083E063E040E00E9454
:10216000310B0F900F900F90CF91DF910895DF9377
:10217000CF9300D00F92CDB7DEB789838981282F06
:1021800030E03B832A838A819B818130910571F005
:102190002A813B812230310571F08A819B81009731
:1021A00071F482E062E00E94140C09C082E067E0F2
:1021B0000E94140C04C083E063E00E94140C0F9092
:1021C0000F900F90CF91DF910895DF93CF93CDB70C
:1021D000DEB70E94C607CF91DF910895DF93CF93BA
:1021E000CDB7DEB764970FB6F894DEBF0FBECDBF94
:1021F0009B8B8A8B6C8B198A8A899B89892F99275B
:10220000888B8A898F870E94FF07898B8989813013
:10221000C1F4888980650E946808898B898981302A
:1022200081F48F850E94D108898B8989813049F496
:102230008C890E94D108898B8989813011F40E9490
:10224000530880E090E0A0EAB0E48B879C87AD87DC
:10225000BE876B857C858D859E8520E030E04AE7D2
:1022600055E40E941F02DC01CB018F839887A98768
:10227000BA876F81788589859A8520E030E040E8CB
:102280005FE30E94250488232CF481E090E09E8384
:102290008D833FC06F81788589859A8520E03FEFE7
:1022A0004FE757E40E94C50318164CF56B857C85F3
:1022B0008D859E8520E030E040E251E40E941F02BF
:1022C000DC01CB01BC01CD010E944900DC01CB0146
:1022D0009E838D830FC080E991E09C838B838B81EB
:1022E0009C810197F1F79C838B838D819E8101975F
:1022F0009E838D838D819E81009769F714C06F81C5
:10230000788589859A850E944900DC01CB019E83EE
:102310008D838D819E819A83898389819A8101979A
:10232000F1F79A83898364960FB6F894DEBF0FBEE7
:10233000CDBFCF91DF910895DF93CF9300D000D030
:1023400000D0CDB7DEB79E838D838D819E81892F8E
:1023500099278B838D818A8319820E94FF07898345
:102360008981813039F58B8180650E946808898375
:1023700089818130F9F48A810E94D1088983898119
:102380008130C1F40E94290889838981813091F4C8
:102390008B8180650E94990889838981813051F4FD
:1023A000CE0104960E94FA0889838981813011F454
:1023B0000E9453088C8126960FB6F894DEBF0FBE9C
:1023C000CDBFCF91DF910895DF93CF93CDB7DEB727
:1023D00081E060E040E00E944E0A81E064E040E07D
:1023E0000E944E0A83E062E040E00E944E0ACF91D4
:1023F000DF910895DF93CF9300D000D0CDB7DEB743
:102400008A8319828A81282F30E03C832B838B8139
:102410009C818130910591F02B813C8122303105E6
:10242000B1F08B819C810097D1F481E060E00E9443
:10243000910C8130A1F481E0898311C081E064E0D6
:102440000E94910C882359F481E0898308C083E0BD
:1024500062E00E94910C882311F481E089838981D4
:102460000F900F900F900F90CF91DF9108951F92D2
:102470000F920FB60F9211242F933F934F935F93B8
:102480006F937F938F939F93AF93BF93EF93FF933C
:10249000DF93CF93CDB7DEB70E94E10980916B0146
:1024A000813031F48091680164E670E00E94A20FEF
:1024B000809198018F5F8093980180919801853079
:1024C00059F42091680180E090E0622F0E94EE10A4
:1024D00010926B0110929801ECE4F0E087EF92EC1F
:1024E000918380830E94D309CF91DF91FF91EF9177
:1024F000BF91AF919F918F917F916F915F914F911C
:102500003F912F910F900FBE0F901F9018951F9223
:102510000F920FB60F921124EF92FF920F931F9319
:102520002F933F934F935F936F937F938F939F93DB
:10253000AF93BF93EF93FF93DF93CF9300D000D07F
:1025400000D0CDB7DEB70E94E109809199018F5F7D
:102550008093990180919901823609F0D2C081E07F
:102560000E94190E9E838D838D819E81CC01A0E0F7
:10257000B0E0BC01CD010E940705DC01CB01BC012C
:10258000CD012AE939E949E950E40E941F02DC0142
:10259000CB0189839A83AB83BC8369817A818B81E8
:1025A0009C8120E030E040E251E40E941903DC010C
:1025B000CB0189839A83AB83BC831092970150C06F
:1025C00080919701682F70E080919701882F90E0AB
:1025D0000196880F991F880F991FFC01E159FE4F42
:1025E0002081318142815381CB01880F991F880F4F
:1025F000991FFC01E159FE4F2083318342835383AD
:1026000080916E01882F90E0AA2797FDA095BA2FA0
:10261000BC01CD010E9455047B018C018091970182
:10262000882F90E0880F991F880F991FFC01E159AE
:10263000FE4F2081318142815381C801B7010E9440
:10264000F201DC01CB01BC01CD010E944900DC019B
:10265000CB0180936E01809197018F5F80939701EA
:1026600080919701893008F4ABCF80919701882F32
:1026700090E0880F991F880F991FFC01E159FE4FC8
:1026800089819A81AB81BC8180839183A283B3834A
:1026900080916E01882F90E0AA2797FDA095BA2F10
:1026A000BC01CD010E9455047B018C0180919701F2
:1026B000882F90E0880F991F880F991FFC01E1591E
:1026C000FE4F2081318142815381C801B7010E94B0
:1026D000F201DC01CB01BC01CD010E944900DC010B
:1026E000CB0180936E0180916E019AE0692F0E9468
:1026F000CF1580936E0110929901E2E5F0E088E534
:1027000080830E94D3092696DEBFCDBFCF91DF9193
:10271000FF91EF91BF91AF919F918F917F916F91B9
:102720005F914F913F912F911F910F91FF90EF90EB
:102730000F900FBE0F901F901895DF93CF93CDB7DA
:10274000DEB781E00E94FA11882309F465C0809108
:102750006B01813009F060C081E00E94FA1188238A
:10276000D9F7809168018B34A0F4809168018B5F68
:1027700080936801109298018091680164E670E08E
:102780000E94A20F2091680180E090E0622F0E94D9
:10279000EE1080916E01282F30E080916801882F23
:1027A00090E0059728173907A1F4E8E3F0E080816D
:1027B00060E041E00E94310BE8E3F0E0808161E0FD
:1027C00040E00E94310B81E080936C0110926D011A
:1027D000B8CF80916E01882F90E09C012550304049
:1027E00080916801882F90E02817390709F0A9CF58
:1027F000E8E3F0E0808160E040E00E94310BE8E334
:10280000F0E0808161E041E00E94310B10926C01A8
:1028100081E080936D0195CF82E00E94FA118823B8
:1028200009F465C080916B01813009F060C082E0DD
:102830000E94FA118823D9F7809168018432A0F0B0
:102840008091680185508093680110929801809171
:10285000680164E670E00E94A20F2091680180E0A8
:1028600090E0622F0E94EE1080916E01282F30E0E0
:1028700080916801882F90E0059728173907A1F407
:10288000E8E3F0E0808160E041E00E94310BE8E3A2
:10289000F0E0808161E040E00E94310B81E08093B4
:1028A0006C0110926D014DCF80916E01882F90E0E8
:1028B0009C012550304080916801882F90E02817B6
:1028C000390709F03ECFE8E3F0E0808160E040E0C6
:1028D0000E94310BE8E3F0E0808161E041E00E947A
:1028E000310B10926C0181E080936D012ACF8091B1
:1028F0006B01882309F025CF80916E01282F30E0ED
:1029000080916801882F90E0059728173907A1F476
:10291000E8E3F0E0808160E041E00E94310BE8E311
:10292000F0E0808161E040E00E94310B81E0809323
:102930006C0110926D0121C080916E01882F90E092
:102940009C012550304080916801882F90E0281725
:10295000390799F4E8E3F0E0808160E040E00E940C
:10296000310BE8E3F0E0808161E041E00E94310B4F
:1029700010926C0181E080936D0180916E0164E69C
:1029800070E00E94A20F2091680180E090E0622F29
:102990000E94EE10CF91DF910895DF93CF93CDB7D2
:1029A000DEB70E94E4110E943F100E945B0EE8E334
:1029B000F0E0808160E041E00E944E0AE8E3F0E050
:1029C000808161E041E00E944E0AE8E3F0E080810E
:1029D00060E040E00E94310BE8E3F0E0808161E0DC
:1029E00040E00E94310B82E00E94861081E00E944C
:1029F000861080916E0164E670E00E94A20F80E074
:102A00000E94FA11882309F45FC080916A0188232B
:102A100009F05AC080E00E94FA118823D9F780E0BB
:102A20000E94551080E090E00E949C118093680104
:102A300081E080936A0180916E0168EE73E00E94EC
:102A4000A20F80916E01282F30E080916801882FBD
:102A500090E0059728173907A1F4E8E3F0E08081BA
:102A600060E041E00E94310BE8E3F0E0808161E04A
:102A700040E00E94310B81E080936C0110926D0167
:102A800050C080916E01882F90E09C01255030400D
:102A900080916801882F90E02817390709F041C01C
:102AA000E8E3F0E0808160E040E00E94310BE8E381
:102AB000F0E0808161E041E00E94310B10926C01F6
:102AC00081E080936D012DC080E00E94FA1188237F
:102AD00041F180916A01813021F580E00E94FA1174
:102AE0008823D9F780E00E948610E8E3F0E0808137
:102AF00060E040E00E94310BE8E3F0E0808161E0BB
:102B000040E00E94310B2091680180E090E0622F4C
:102B10000E94EE1080E064E670E00E94A20F109226
:102B20006A0181E00E94FA11882331F482E00E9458
:102B3000FA11882309F45DCF80916A01813009F090
:102B400058CF81E00E94FA118823D9F782E00E94D1
:102B5000FA118823B1F781E080936B0181E00E9434
:102B6000B710E2E5F0E088E58083E3E5F0E083E09C
:102B700080830E94B807ECE4F0E087EF92EC918349
:102B80008083EFE4F0E01082EEE4F0E085E0808303
:102B90000E9475070E94D3090E949D132ACF991B9A
:102BA00079E004C0991F961708F0961B881F7A9544
:102BB000C9F7809508952F923F924F925F926F923E
:102BC0007F928F929F92AF92BF92CF92DF92EF92BD
:102BD000FF920F931F93CF93DF93CDB7DEB7CA1B3E
:102BE000DB0B0FB6F894DEBF0FBECDBF09942A8869
:102BF000398848885F846E847D848C849B84AA8411
:102C0000B984C884DF80EE80FD800C811B81AA819D
:102C1000B981CE0FD11D0FB6F894DEBF0FBECDBF68
:082C2000ED010895F894FFCFC7
:102C2800000000000000000000010202030303038B
:102C38000404040404040404050505050505050544
:102C48000505050505050505060606060606060624
:102C5800060606060606060606060606060606060C
:102C680006060606060606060707070707070707F4
:102C780007070707070707070707070707070707DC
:102C880007070707070707070707070707070707CC
:102C980007070707070707070707070707070707BC
:102CA80007070707070707070808080808080808A4
:102CB800080808080808080808080808080808088C
:102CC800080808080808080808080808080808087C
:102CD800080808080808080808080808080808086C
:102CE800080808080808080808080808080808085C
:102CF800080808080808080808080808080808084C
:102D0800080808080808080808080808080808083B
:102D1800080808080808080808080808080808082B
:0A2D280008080808080808083C0025
:00000001FF
